{
  "contractName": "MailSystem",
  "abi": [
    {
      "inputs": [],
      "stateMutability": "nonpayable",
      "type": "constructor"
    },
    {
      "anonymous": false,
      "inputs": [
        {
          "indexed": false,
          "internalType": "address",
          "name": "sender",
          "type": "address"
        },
        {
          "indexed": false,
          "internalType": "address",
          "name": "receiver",
          "type": "address"
        },
        {
          "indexed": false,
          "internalType": "uint256",
          "name": "time",
          "type": "uint256"
        }
      ],
      "name": "sendMailEvent",
      "type": "event"
    },
    {
      "inputs": [],
      "name": "owner",
      "outputs": [
        {
          "internalType": "address",
          "name": "",
          "type": "address"
        }
      ],
      "stateMutability": "view",
      "type": "function",
      "constant": true
    },
    {
      "inputs": [
        {
          "internalType": "address",
          "name": "receiver",
          "type": "address"
        },
        {
          "internalType": "string",
          "name": "title",
          "type": "string"
        },
        {
          "internalType": "string",
          "name": "content",
          "type": "string"
        },
        {
          "internalType": "uint256",
          "name": "priority",
          "type": "uint256"
        }
      ],
      "name": "sendMail",
      "outputs": [],
      "stateMutability": "nonpayable",
      "type": "function"
    },
    {
      "inputs": [],
      "name": "seeMails",
      "outputs": [
        {
          "components": [
            {
              "internalType": "address",
              "name": "sender",
              "type": "address"
            },
            {
              "internalType": "address",
              "name": "receiver",
              "type": "address"
            },
            {
              "internalType": "string",
              "name": "title",
              "type": "string"
            },
            {
              "internalType": "string",
              "name": "content",
              "type": "string"
            },
            {
              "internalType": "bool",
              "name": "wasRead",
              "type": "bool"
            },
            {
              "internalType": "uint256",
              "name": "priority",
              "type": "uint256"
            },
            {
              "internalType": "uint256",
              "name": "time",
              "type": "uint256"
            }
          ],
          "internalType": "struct MailSystem.Mail[]",
          "name": "",
          "type": "tuple[]"
        }
      ],
      "stateMutability": "view",
      "type": "function",
      "constant": true
    },
    {
      "inputs": [
        {
          "internalType": "uint256",
          "name": "index",
          "type": "uint256"
        }
      ],
      "name": "readMail",
      "outputs": [
        {
          "internalType": "string",
          "name": "",
          "type": "string"
        }
      ],
      "stateMutability": "nonpayable",
      "type": "function"
    },
    {
      "inputs": [],
      "name": "getMailsSortedByPriority",
      "outputs": [
        {
          "components": [
            {
              "internalType": "address",
              "name": "sender",
              "type": "address"
            },
            {
              "internalType": "address",
              "name": "receiver",
              "type": "address"
            },
            {
              "internalType": "string",
              "name": "title",
              "type": "string"
            },
            {
              "internalType": "string",
              "name": "content",
              "type": "string"
            },
            {
              "internalType": "bool",
              "name": "wasRead",
              "type": "bool"
            },
            {
              "internalType": "uint256",
              "name": "priority",
              "type": "uint256"
            },
            {
              "internalType": "uint256",
              "name": "time",
              "type": "uint256"
            }
          ],
          "internalType": "struct MailSystem.Mail[]",
          "name": "",
          "type": "tuple[]"
        }
      ],
      "stateMutability": "view",
      "type": "function",
      "constant": true
    },
    {
      "inputs": [],
      "name": "getInfoAboutMails",
      "outputs": [
        {
          "internalType": "uint256",
          "name": "",
          "type": "uint256"
        },
        {
          "internalType": "uint256",
          "name": "",
          "type": "uint256"
        }
      ],
      "stateMutability": "view",
      "type": "function",
      "constant": true
    },
    {
      "inputs": [
        {
          "internalType": "uint256",
          "name": "scnds",
          "type": "uint256"
        }
      ],
      "name": "getCountOfMailsInLast",
      "outputs": [
        {
          "internalType": "uint256",
          "name": "",
          "type": "uint256"
        }
      ],
      "stateMutability": "view",
      "type": "function",
      "constant": true
    }
  ],
  "bytecode": "0x608060405234801561001057600080fd5b50336000806101000a81548173ffffffffffffffffffffffffffffffffffffffff021916908373ffffffffffffffffffffffffffffffffffffffff160217905550611b62806100606000396000f3fe608060405234801561001057600080fd5b506004361061007d5760003560e01c8063a403f1b41161005b578063a403f1b4146100da578063b10124f11461010a578063cd8f70d614610129578063e068b2fd146101595761007d565b80630bd84ee214610082578063403989f3146100a05780638da5cb5b146100bc575b600080fd5b61008a610177565b604051610097919061174e565b60405180910390f35b6100ba60048036038101906100b5919061134b565b610638565b005b6100c4610b47565b6040516100d191906116fc565b60405180910390f35b6100f460048036038101906100ef91906113de565b610b6b565b6040516101019190611770565b60405180910390f35b610112610ca8565b60405161012092919061180d565b60405180910390f35b610143600480360381019061013e91906113de565b610de4565b60405161015091906117f2565b60405180910390f35b610161610f10565b60405161016e919061174e565b60405180910390f35b60606000600260003373ffffffffffffffffffffffffffffffffffffffff1673ffffffffffffffffffffffffffffffffffffffff1681526020019081526020016000208054905067ffffffffffffffff8111156101fd577f4e487b7100000000000000000000000000000000000000000000000000000000600052604160045260246000fd5b60405190808252806020026020018201604052801561023657816020015b6102236111ab565b81526020019060019003908161021b5790505b509050600080600590505b6001811061062f5760005b600260003373ffffffffffffffffffffffffffffffffffffffff1673ffffffffffffffffffffffffffffffffffffffff1681526020019081526020016000208054905081101561061b5781600260003373ffffffffffffffffffffffffffffffffffffffff1673ffffffffffffffffffffffffffffffffffffffff168152602001908152602001600020828154811061030e577f4e487b7100000000000000000000000000000000000000000000000000000000600052603260045260246000fd5b906000526020600020906007020160050154141561060857600260003373ffffffffffffffffffffffffffffffffffffffff1673ffffffffffffffffffffffffffffffffffffffff168152602001908152602001600020818154811061039d577f4e487b7100000000000000000000000000000000000000000000000000000000600052603260045260246000fd5b90600052602060002090600702016040518060e00160405290816000820160009054906101000a900473ffffffffffffffffffffffffffffffffffffffff1673ffffffffffffffffffffffffffffffffffffffff1673ffffffffffffffffffffffffffffffffffffffff1681526020016001820160009054906101000a900473ffffffffffffffffffffffffffffffffffffffff1673ffffffffffffffffffffffffffffffffffffffff1673ffffffffffffffffffffffffffffffffffffffff168152602001600282018054610472906119e5565b80601f016020809104026020016040519081016040528092919081815260200182805461049e906119e5565b80156104eb5780601f106104c0576101008083540402835291602001916104eb565b820191906000526020600020905b8154815290600101906020018083116104ce57829003601f168201915b50505050508152602001600382018054610504906119e5565b80601f0160208091040260200160405190810160405280929190818152602001828054610530906119e5565b801561057d5780601f106105525761010080835404028352916020019161057d565b820191906000526020600020905b81548152906001019060200180831161056057829003601f168201915b505050505081526020016004820160009054906101000a900460ff16151515158152602001600582015481526020016006820154815250508484815181106105ee577f4e487b7100000000000000000000000000000000000000000000000000000000600052603260045260246000fd5b6020026020010181905250828061060490611a17565b9350505b808061061390611a17565b91505061024c565b508080610627906119bb565b915050610241565b50819250505090565b8373ffffffffffffffffffffffffffffffffffffffff163373ffffffffffffffffffffffffffffffffffffffff1614156106a7576040517f08c379a000000000000000000000000000000000000000000000000000000000815260040161069e90611792565b60405180910390fd5b60006040518060e001604052803373ffffffffffffffffffffffffffffffffffffffff1681526020018673ffffffffffffffffffffffffffffffffffffffff168152602001858152602001848152602001600015158152602001838152602001428152509050600360003373ffffffffffffffffffffffffffffffffffffffff1673ffffffffffffffffffffffffffffffffffffffff16815260200190815260200160002081908060018154018082558091505060019003906000526020600020906007020160009091909190915060008201518160000160006101000a81548173ffffffffffffffffffffffffffffffffffffffff021916908373ffffffffffffffffffffffffffffffffffffffff16021790555060208201518160010160006101000a81548173ffffffffffffffffffffffffffffffffffffffff021916908373ffffffffffffffffffffffffffffffffffffffff1602179055506040820151816002019080519060200190610820929190611216565b50606082015181600301908051906020019061083d929190611216565b5060808201518160040160006101000a81548160ff02191690831515021790555060a0820151816005015560c082015181600601555050600260008673ffffffffffffffffffffffffffffffffffffffff1673ffffffffffffffffffffffffffffffffffffffff16815260200190815260200160002081908060018154018082558091505060019003906000526020600020906007020160009091909190915060008201518160000160006101000a81548173ffffffffffffffffffffffffffffffffffffffff021916908373ffffffffffffffffffffffffffffffffffffffff16021790555060208201518160010160006101000a81548173ffffffffffffffffffffffffffffffffffffffff021916908373ffffffffffffffffffffffffffffffffffffffff1602179055506040820151816002019080519060200190610987929190611216565b5060608201518160030190805190602001906109a4929190611216565b5060808201518160040160006101000a81548160ff02191690831515021790555060a0820151816005015560c082015181600601555050600181908060018154018082558091505060019003906000526020600020906007020160009091909190915060008201518160000160006101000a81548173ffffffffffffffffffffffffffffffffffffffff021916908373ffffffffffffffffffffffffffffffffffffffff16021790555060208201518160010160006101000a81548173ffffffffffffffffffffffffffffffffffffffff021916908373ffffffffffffffffffffffffffffffffffffffff1602179055506040820151816002019080519060200190610ab1929190611216565b506060820151816003019080519060200190610ace929190611216565b5060808201518160040160006101000a81548160ff02191690831515021790555060a0820151816005015560c0820151816006015550507f15609b2e0f20bddb474683b68c6e783f301882e49a9d88fc9937ec9f791839b9338642604051610b3893929190611717565b60405180910390a15050505050565b60008054906101000a900473ffffffffffffffffffffffffffffffffffffffff1681565b60606000600260003373ffffffffffffffffffffffffffffffffffffffff1673ffffffffffffffffffffffffffffffffffffffff1681526020019081526020016000208381548110610be6577f4e487b7100000000000000000000000000000000000000000000000000000000600052603260045260246000fd5b9060005260206000209060070201905060018160040160006101000a81548160ff021916908315150217905550806003018054610c22906119e5565b80601f0160208091040260200160405190810160405280929190818152602001828054610c4e906119e5565b8015610c9b5780601f10610c7057610100808354040283529160200191610c9b565b820191906000526020600020905b815481529060010190602001808311610c7e57829003601f168201915b5050505050915050919050565b60008060008054906101000a900473ffffffffffffffffffffffffffffffffffffffff1673ffffffffffffffffffffffffffffffffffffffff163373ffffffffffffffffffffffffffffffffffffffff1614610d39576040517f08c379a0000000000000000000000000000000000000000000000000000000008152600401610d30906117b2565b60405180910390fd5b600060018054905090506000805b600180549050811015610dd7576201518042610d6391906118fd565b60018281548110610d9d577f4e487b7100000000000000000000000000000000000000000000000000000000600052603260045260246000fd5b9060005260206000209060070201600601541115610dc4578180610dc090611a17565b9250505b8080610dcf90611a17565b915050610d47565b5081819350935050509091565b60008060009054906101000a900473ffffffffffffffffffffffffffffffffffffffff1673ffffffffffffffffffffffffffffffffffffffff163373ffffffffffffffffffffffffffffffffffffffff1614610e75576040517f08c379a0000000000000000000000000000000000000000000000000000000008152600401610e6c906117d2565b60405180910390fd5b6000805b600180549050811015610f06578342610e9291906118fd565b60018281548110610ecc577f4e487b7100000000000000000000000000000000000000000000000000000000600052603260045260246000fd5b9060005260206000209060070201600601541115610ef3578180610eef90611a17565b9250505b8080610efe90611a17565b915050610e79565b5080915050919050565b6060600260003373ffffffffffffffffffffffffffffffffffffffff1673ffffffffffffffffffffffffffffffffffffffff168152602001908152602001600020805480602002602001604051908101604052809291908181526020016000905b828210156111a257838290600052602060002090600702016040518060e00160405290816000820160009054906101000a900473ffffffffffffffffffffffffffffffffffffffff1673ffffffffffffffffffffffffffffffffffffffff1673ffffffffffffffffffffffffffffffffffffffff1681526020016001820160009054906101000a900473ffffffffffffffffffffffffffffffffffffffff1673ffffffffffffffffffffffffffffffffffffffff1673ffffffffffffffffffffffffffffffffffffffff168152602001600282018054611050906119e5565b80601f016020809104026020016040519081016040528092919081815260200182805461107c906119e5565b80156110c95780601f1061109e576101008083540402835291602001916110c9565b820191906000526020600020905b8154815290600101906020018083116110ac57829003601f168201915b505050505081526020016003820180546110e2906119e5565b80601f016020809104026020016040519081016040528092919081815260200182805461110e906119e5565b801561115b5780601f106111305761010080835404028352916020019161115b565b820191906000526020600020905b81548152906001019060200180831161113e57829003601f168201915b505050505081526020016004820160009054906101000a900460ff161515151581526020016005820154815260200160068201548152505081526020019060010190610f71565b50505050905090565b6040518060e00160405280600073ffffffffffffffffffffffffffffffffffffffff168152602001600073ffffffffffffffffffffffffffffffffffffffff168152602001606081526020016060815260200160001515815260200160008152602001600081525090565b828054611222906119e5565b90600052602060002090601f016020900481019282611244576000855561128b565b82601f1061125d57805160ff191683800117855561128b565b8280016001018555821561128b579182015b8281111561128a57825182559160200191906001019061126f565b5b509050611298919061129c565b5090565b5b808211156112b557600081600090555060010161129d565b5090565b60006112cc6112c784611867565b611836565b9050828152602081018484840111156112e457600080fd5b6112ef848285611979565b509392505050565b60008135905061130681611afe565b92915050565b600082601f83011261131d57600080fd5b813561132d8482602086016112b9565b91505092915050565b60008135905061134581611b15565b92915050565b6000806000806080858703121561136157600080fd5b600061136f878288016112f7565b945050602085013567ffffffffffffffff81111561138c57600080fd5b6113988782880161130c565b935050604085013567ffffffffffffffff8111156113b557600080fd5b6113c18782880161130c565b92505060606113d287828801611336565b91505092959194509250565b6000602082840312156113f057600080fd5b60006113fe84828501611336565b91505092915050565b6000611413838361163b565b905092915050565b61142481611931565b82525050565b61143381611931565b82525050565b6000611444826118a7565b61144e81856118ca565b93508360208202850161146085611897565b8060005b8581101561149c578484038952815161147d8582611407565b9450611488836118bd565b925060208a01995050600181019050611464565b50829750879550505050505092915050565b6114b781611943565b82525050565b60006114c8826118b2565b6114d281856118db565b93506114e2818560208601611988565b6114eb81611aed565b840191505092915050565b6000611501826118b2565b61150b81856118ec565b935061151b818560208601611988565b61152481611aed565b840191505092915050565b600061153c6021836118ec565b91507f596f752063616e6e6f742073656e64206d61696c20746f20796f757273656c6660008301527f2e000000000000000000000000000000000000000000000000000000000000006020830152604082019050919050565b60006115a26026836118ec565b91507f4f6e6c79206f776e65722063616e2075736520746869732066756e6374696f6e60008301527f616c6974792e00000000000000000000000000000000000000000000000000006020830152604082019050919050565b60006116086018836118ec565b91507f4f6e6c79206f776e65722063616e2067657420646174612e00000000000000006000830152602082019050919050565b600060e083016000830151611653600086018261141b565b506020830151611666602086018261141b565b506040830151848203604086015261167e82826114bd565b9150506060830151848203606086015261169882826114bd565b91505060808301516116ad60808601826114ae565b5060a08301516116c060a08601826116de565b5060c08301516116d360c08601826116de565b508091505092915050565b6116e78161196f565b82525050565b6116f68161196f565b82525050565b6000602082019050611711600083018461142a565b92915050565b600060608201905061172c600083018661142a565b611739602083018561142a565b61174660408301846116ed565b949350505050565b600060208201905081810360008301526117688184611439565b905092915050565b6000602082019050818103600083015261178a81846114f6565b905092915050565b600060208201905081810360008301526117ab8161152f565b9050919050565b600060208201905081810360008301526117cb81611595565b9050919050565b600060208201905081810360008301526117eb816115fb565b9050919050565b600060208201905061180760008301846116ed565b92915050565b600060408201905061182260008301856116ed565b61182f60208301846116ed565b9392505050565b6000604051905081810181811067ffffffffffffffff8211171561185d5761185c611abe565b5b8060405250919050565b600067ffffffffffffffff82111561188257611881611abe565b5b601f19601f8301169050602081019050919050565b6000819050602082019050919050565b600081519050919050565b600081519050919050565b6000602082019050919050565b600082825260208201905092915050565b600082825260208201905092915050565b600082825260208201905092915050565b60006119088261196f565b91506119138361196f565b92508282101561192657611925611a60565b5b828203905092915050565b600061193c8261194f565b9050919050565b60008115159050919050565b600073ffffffffffffffffffffffffffffffffffffffff82169050919050565b6000819050919050565b82818337600083830152505050565b60005b838110156119a657808201518184015260208101905061198b565b838111156119b5576000848401525b50505050565b60006119c68261196f565b915060008214156119da576119d9611a60565b5b600182039050919050565b600060028204905060018216806119fd57607f821691505b60208210811415611a1157611a10611a8f565b5b50919050565b6000611a228261196f565b91507fffffffffffffffffffffffffffffffffffffffffffffffffffffffffffffffff821415611a5557611a54611a60565b5b600182019050919050565b7f4e487b7100000000000000000000000000000000000000000000000000000000600052601160045260246000fd5b7f4e487b7100000000000000000000000000000000000000000000000000000000600052602260045260246000fd5b7f4e487b7100000000000000000000000000000000000000000000000000000000600052604160045260246000fd5b6000601f19601f8301169050919050565b611b0781611931565b8114611b1257600080fd5b50565b611b1e8161196f565b8114611b2957600080fd5b5056fea264697066735822122001def95d2b06e6c967289ac97fb0aa6a7d76d654bc656d7b756cc5424ba5d4aa64736f6c63430008000033",
  "immutableReferences": {},
  "source": "// SPDX-License-Identifier: MIT\r\npragma solidity >=0.4.21;\r\n\r\ncontract MailSystem {\r\n\r\n    address public owner;\r\n    \r\n    constructor(){\r\n        owner=msg.sender;\r\n    }\r\n\r\n    struct Mail {\r\n        address sender;\r\n        address receiver;\r\n        string title;\r\n        string content;\r\n        bool wasRead;\r\n        uint priority;\r\n        uint256 time;\r\n    }\r\n\r\n    Mail[] private mails;\r\n    mapping(address => Mail[]) private receivedMails;\r\n    mapping(address => Mail[]) private sentMails;\r\n\r\n    event sendMailEvent(address sender, address receiver, uint time);\r\n    \r\n    modifier onlyOwnerModifier {\r\n        require(msg.sender==owner, \"Only owner can use this functionality.\");\r\n        _;\r\n    }\r\n\r\n    //Send mail to another address.\r\n    function sendMail(address receiver, string memory title, string memory content, uint priority) external {\r\n        require(msg.sender!=receiver, \"You cannot send mail to yourself.\");\r\n        Mail memory mail = Mail(msg.sender, receiver, title, content, false, priority, block.timestamp);\r\n        sentMails[msg.sender].push(mail);\r\n        receivedMails[receiver].push(mail);\r\n        mails.push(mail);\r\n        emit sendMailEvent(msg.sender, receiver, block.timestamp);\r\n    }\r\n\r\n    //User sees all mails he/she received.\r\n    function seeMails() external view returns (Mail[] memory){\r\n        return receivedMails[msg.sender];\r\n    }\r\n\r\n    //User chooses a mail and sees its content.\r\n    function readMail(uint index) external returns(string memory) {\r\n        Mail storage mail = receivedMails[msg.sender][index];\r\n        mail.wasRead=true;\r\n        return mail.content;\r\n    }\r\n\r\n    //For the user to see the mails he/she recevied sorted by the priority.\r\n    function getMailsSortedByPriority() external view returns(Mail[] memory) { \r\n        Mail[] memory sortedMails = new Mail[](receivedMails[msg.sender].length);\r\n        uint count=0;\r\n        for (uint j=5; j>=1; j--){\r\n            for (uint i=0; i<receivedMails[msg.sender].length; i++) {\r\n                if(receivedMails[msg.sender][i].priority == j){\r\n                    sortedMails[count]=receivedMails[msg.sender][i];\r\n                    count++;\r\n                }\r\n            }\r\n        }\r\n        return sortedMails;\r\n    }\r\n\r\n    //For the owner to see the usage data of the app.\r\n    //Currently only the number of mails sent in all the time, and in last 24 hours, but other data can be added.\r\n    function getInfoAboutMails() onlyOwnerModifier external view returns(uint256, uint)  {\r\n        uint256 count=mails.length;\r\n        uint countLess24Hours=0;\r\n        for(uint i=0; i<mails.length; i++){\r\n            if(mails[i].time > block.timestamp - 1 days){\r\n                countLess24Hours++;\r\n            }\r\n        }\r\n        return (count, countLess24Hours);\r\n    }\r\n\r\n    //For owner to see how many mails were sent in the specified time.\r\n    function getCountOfMailsInLast(uint scnds) external view returns(uint){ \r\n        require(msg.sender==owner, \"Only owner can get data.\");\r\n        uint count=0;\r\n        for(uint i=0; i < mails.length; i++){\r\n            if(mails[i].time > block.timestamp - scnds){\r\n                count++;\r\n            }\r\n        }\r\n        return count;\r\n    }\r\n    \r\n}",
  "sourcePath": "C:\\Users\\iokay\\OneDrive\\Masast\\web3-mail-app\\contracts\\MailSystem.sol",
  "compiler": {
    "name": "solc",
    "version": "0.8.0+commit.c7dfd78e.Emscripten.clang"
  },
  "schemaVersion": "3.4.10",
  "updatedAt": "2022-10-10T18:48:49.216Z",
  "networkType": "ethereum",
  "devdoc": {
    "kind": "dev",
    "methods": {},
    "version": 1
  },
  "userdoc": {
    "kind": "user",
    "methods": {},
    "version": 1
  }
}